:06300000FDEFFFF00000EF
:020000040001F9
:10FBF20001EE01F1130EEE6AE806FDE1000120EFCD
:10FC0200FEF0600E0001AD6FAF6BB36B080EB16F0B
:10FC1200B06BAC6B1200AA0E0B6E550E0A6E000E84
:10FC2200146E000E156E380E166E000E176EAA0EAA
:10FC3200186E6BECFEF00B6A0A6AFF00120002EC0F
:10FC4200FEF093ECFEF051ECFEF0C1921C6A960EAF
:10FC52001B6E37ECFEF0C182030E1C6E520E1B6E41
:10FC620037ECFEF026EFFEF0FDEFFFF043EFFEF083
:10FC72000EECFFF0150E1D6EC60EE82EFED71D2EE1
:10FC8200FCD700D01B06D8A01C061B2806E11C28A6
:10FC9200D8A44EEFFEF050EFFEF039EFFEF0120066
:10FCA2000201A26BA46BA56BA66BA76BA86BA96BD9
:10FCB200AA6BB00EAB6F800EAC6F080EAD6F820EEA
:10FCC200AE6F060EAF6F2E0EB06FB16B800EB26FBD
:10FCD200B36B1200000ED6BE010E196E16C545F0AA
:10FCE20015C544F014C543F018C546F00001415152
:10FCF200F80B0309416FD69E00010AC542F00B5072
:10FD0200426F408119B002D0D69E01D0D68E00013A
:10FD120040B18EEFFEF090EFFEF088EFFEF0F80EAD
:10FD220041171200BE6ABF6AC06A020EC16EC26A81
:10FD32000401006908693F0E106FFD0E186F070E6F
:10FD4200206FC668C768BF0EC86EFD0EC96E0F0E63
:10FD5200CA6E026B0A6B126B1A6B226B016B096B18
:10FD6200116B196B216B03690B6913691B69070E10
:10FD7200236F04690C6914691C690F0E246F170E36
:10FD82000201726F200E176F1200186A040E161805
:10FD9200D8A4CEEFFEF0D0EFFEF00CEFFFF014C5CA
:10FDA200D9F415C5DAF4420EDE18D8A4DBEFFEF062
:10FDB200DDEFFEF00CEFFFF020EE01F01450D9263B
:10FDC2001550DA224F0EDE18D8A4EAEFFEF0ECEF5F
:10FDD200FEF00CEFFFF020EE02F01450D926155081
:10FDE200DA224F0EDE18D8A4F9EFFEF0FBEFFEF098
:10FDF2000CEFFFF020EE03F01450D9261550DA2252
:10FE0200540EDE18D8A408EFFFF00AEFFFF00CEF53
:10FE1200FFF0010E186E185012000201B2B714EF73
:10FE2200FFF016EFFFF024EFFFF0B2B31BEFFFF08D
:10FE32001DEFFFF024EFFFF0B2AD22EFFFF024EF51
:10FE4200FFF0F4EFFFF0B297B293B29D096AF4EFBC
:10FE5200FFF0A1C21AF5DDEFFFF07E0E1A18D8A44A
:10FE620035EFFFF037EFFFF0F4EFFFF0010E096E10
:10FE7200F4EFFFF01A50046E036A020E096EF4EFFB
:10FE8200FFF01A500312026A000E016E086A076A36
:10FE9200066A03500410D8B451EFFFF054EFFFF09C
:10FEA200010E55EFFFF0000E056E03500410D8A4AA
:10FEB2005DEFFFF05FEFFFF062EFFFF0096AF4EF32
:10FEC200FFF0030E096EF4EFFFF008501A24086EDB
:10FED20001500210D8A470EFFFF072EFFFF080EF34
:10FEE200FFF0900E1A18D8A479EFFFF07CEFFFF024
:10FEF200010E7DEFFFF0000E056EA5EFFFF005503D
:10FF0200D8A486EFFFF088EFFFF0A5EFFFF00250D4
:10FF120009E10C0E015CD8A091EFFFF093EFFFF026
:10FF2200A5EFFFF0080E076099EFFFF09BEFFFF0DF
:10FF3200A4EFFFF00C0E0724D96EDA6A050EDA225E
:10FF42001AC5DFF4072A062A014A022A0350015C75
:10FF520004500258D8A0B0EFFFF0B2EFFFF0F4EF78
:10FF6200FFF0040E096EF4EFFFF0096A08501A243C
:10FF7200FF0AD8A4BFEFFFF0C1EFFFF0F4EFFFF0EC
:10FF82000550D8A4C7EFFFF0C9EFFFF0F4EFFFF080
:10FF92000C0E146E050E156E06C516F5C6ECFEF0B7
:10FFA2000009D8B4D7EFFFF0D9EFFFF0F4EFFFF07C
:10FFB2000CECFEF0F4EFFFF00950000AD8B42EEF7B
:10FFC200FFF0010AD8B43BEFFFF0030AD8B442EFC6
:10FFD200FFF0010AD8B466EFFFF0070AD8B4B6EF13
:10FFE200FFF05FEFFFF00201B0A3FAEFFFF0FCEFCA
:0CFFF200FFF02AEFFFF01200F9EFFDF025
:00000001FF
