:1000000081EF00F0FFFFFFFF9B069B069B069B0610
:1000100040009B0640009B0649069B069B069B06EC
:100020009B069B069B069B069B06400040004000EB
:100030009B069B069B069B069B069B069B069B06B8
:100040009B069B069B069B069B069B069B069B06A8
:10005000400040009B069B069B069B069B064000BB
:100060009B069B069B069B064F069B069B069B06D4
:100070009B069B069B069B069B069B069B069B0678
:1000800040009B069B069B069B069B069B069B06C9
:100090009B069B069B069B069B069B069B069B0658
:1000A00040009B064000400055069B069B069B06B1
:1000B0009B069B069B069B069B069B069B069B0638
:1000C0009B069B069B069B069B069B069B069B0628
:1000D0009B069B069B069B069B069B069B069B0618
:1000E0009B069B069B069B0640009B069B069B0669
:1000F00040004000400040009B069B069B069B067C
:10010000FF0029EF09F00501A151D8A48AEF00F002
:100110008CEF00F08EEF00F022EC0CF00501D06BBC
:10012000000E096E080E0A6EBC0E0B6E050E0C6EEC
:10013000C0EC15F00501D16F690ED119D8A4A3EF59
:1001400000F0A5EF00F0C1EF00F0BD0ECF6F010E83
:10015000E06F010ED06F000E126E060E136ED00E01
:10016000146E050E156E040E166EDE51400A176EE3
:10017000196A010E186EA7EC0AF038EC0CF022EFA9
:1001800001F0E70ED119D8A4C8EF00F0CAEF00F0D3
:10019000F3EF00F0BD5107E1020EBC5DD8B0D3EF24
:1001A00000F0D5EF00F0DDEF00F0AA0ECF6F020EE9
:1001B000D06F010EE06FABEF00F0B3EC07F0000979
:1001C000D8B4E5EF00F0E7EF00F0EFEF00F067ECF8
:1001D00001F00501CF6F010EDF6FBDEF00F00501EB
:1001E000CF69BDEF00F03C0ED119D8A4FAEF00F0B2
:1001F000FCEF00F013EF01F0CF69010EE06F000E8D
:10020000126E060E136ED00E146E050E156E040ED1
:10021000166EDE51400A176E196A010E186EA7ECB1
:100220000AF022EF01F0180ED119D8A41AEF01F04C
:100230001CEF01F020EF01F03C0ECF6F22EF01F038
:10024000180ECF6F0501E051D8B429EF01F02BEF64
:1002500001F045EF01F0000E0A6E060E0B6E96C51A
:100260000CF597C50DF514EC06F00501D16FE70EFE
:10027000D119D8B43EEF01F040EF01F042EF01F0A8
:10028000180ECF6FE06B65EF01F0DF51D8B44BEF84
:1002900001F04DEF01F065EF01F0A30E0A6E050EBF
:1002A0000B6E96C50CF597C50DF514EC06F005011F
:1002B000D16FE70ED119D8B460EF01F062EF01F011
:1002C00064EF01F0180ECF6FDF6BCF51120024EFF7
:1002D00002F03FEC02F0810E566E3DEF02F096EC1C
:1002E0000BF0566EF00E5618D8A479EF01F07BEFA4
:1002F00001F090EF01F0070E536EA30E126E050E83
:10030000136E530E146E050E156E050E166EDDC5BA
:1003100017F5196A010E186EA7EC0AF03DEF02F00E
:10032000810E5618D8B497EF01F099EF01F09DEFC8
:1003300001F0020E556E9FEF01F0010E556EA30EF7
:10034000126E050E136E550E146E050E156E010E0F
:10035000166EDDC517F5196A010E186EA7EC0AF0C6
:100360003DEF02F0810E566E24EC0DF0A30E126EDE
:10037000050E136E000E146E000E156E010E166E35
:10038000DDC517F5196A000E186EA7EC0AF03DEFEF
:1003900002F0020E4A6E080E4B6EFC0E0501BC25E3
:1003A0004C6EFF0EBD214D6EF6EC02F0566E810EC6
:1003B0005618D8A4DEEF01F0E0EF01F0E2EF01F013
:1003C000B6EF01F05650D6EC0AF0546EA30E126E42
:1003D000050E136E540E146E050E156E050E166E78
:1003E000DDC517F5196A010E186EA7EC0AF03DEF8E
:1003F00002F0A30E126E050E136E000E146E000EA8
:10040000156E010E166EDDC517F5196A000E186E11
:10041000A7EC0AF0010E0501A26F6BEF01F0420E8E
:10042000566EA30E126E050E136E000E146E000EA5
:10043000156E020E166EDDC517F5196A000E186EE0
:10044000A7EC0AF03DEF02F022EE01F0DF50010AC6
:10045000D8B469EF01F0030AD8B4B2EF01F0010A91
:10046000D8B4C9EF01F0070AD8B46FEF01F0010A60
:10047000D8B4F9EF01F00FEF02F056501200600E01
:10048000196EE30E1A6E160E1B6E000E1C6EE7C57B
:100490001DF5E8C51EF5E9C51FF5E4C520F5E5C560
:1004A00021F5E6C522F5E1C523F5E2C524F5E3C54E
:1004B00025F57CC528F57DC529F57EC52AF57FC5BE
:1004C0002BF5010E286E030E296E200E2A6E050EE6
:1004D0002B6E78C52CF579C52DF57AC52EF57BC523
:1004E0002FF5020E2C6E030E2D6E1D0E2E6E050EB8
:1004F0002F6E74C530F575C531F576C532F577C503
:1005000033F5030E306E030E316E230E326E050E80
:10051000336E70C534F571C535F572C536F573C5E2
:1005200037F5040E346E040E356E190E366E050E58
:10053000376E2D5029C517F5186A1726000E182298
:1005400031501726000E182235501726000E18229B
:100550000A0E17240501966F000E1820976FDDC54F
:10056000A3F5010EA46F276A020E266EA30E2624A1
:10057000126E050E2720136E280E146E050E156ED2
:1005800045EC0AF0176E17502626000E2722A30E00
:100590002624126E050E2720136E2C0E146E050EE7
:1005A000156E45EC0AF0176E17502626000E27220E
:1005B000A30E2624126E050E2720136E300E146E25
:1005C000050E156E45EC0AF0176E17502626000E24
:1005D0002722A30E2624126E050E2720136E340E3A
:1005E000146E050E156E45EC0AF01200420E050160
:1005F000C26FC30E076E050E086E030E4A24096E05
:10060000000E4B200A6E0C6A0C0E0B6E31EC0BF0D8
:10061000BF0E076E050E086E4AC509F54BC50AF5F3
:100620000C6A030E0B6E31EC0BF0C7C560F5C8C544
:1006300061F5CBC564F5CCC565F5C9C566F5CAC518
:1006400067F5CDC562F5CEC563F590EF03F04AC5F9
:100650001CF54BC51DF555EC04F00501C26FA6EF66
:1006600003F0A005D8A437EF03F039EF03F0A6EFAD
:1006700003F021EE60F101EE07F1070EDBC4EBF4AD
:10068000E806FCE2EFEC17F0C3C507F5C4C508F5B2
:10069000C5C509F51DEC0DF007500810D8A453EF9F
:1006A00003F055EF03F085EF03F00501C55109E1B3
:1006B000300EC45DD8A05FEF03F061EF03F085EF6B
:1006C00003F0C3C530F5C4C531F5C5C532F50F0E0D
:1006D0004A24336E000E4B20346E010E366E000E2F
:1006E000356E7DEC14F00501BE6FBE51D8A47BEFD2
:1006F00003F07DEF03F081EF03F0810EC26F88EF0E
:1007000003F07E0EC26F88EF03F0240E0501C26F66
:1007100083EC0CF0A6EF03F0420EC26FA6EF03F0DD
:100720000501C1514E6E4F6A4F50000AD8B49BEF7D
:1007300003F08CEF03F04E50010AD8B427EF03F01A
:10074000030AD8B431EF03F08CEF03F00501C25176
:1007500012001AC52DF51BC52EF51CC52FF5010E6F
:100760002C6E2AEC0DF01D501E10D8A4BAEF03F029
:10077000BCEF03F0C0EF03F0020E2C6E53EF04F059
:100780002D04000E2E58020E2F58D8A0CAEF03F0E9
:10079000CCEF03F0CEEF03F0BCEF03F01F502010BE
:1007A000D8B4D5EF03F0D7EF03F0BCEF03F01F048C
:1007B000010E2058D8B0DFEF03F0E1EF03F0BCEFFB
:1007C00003F01FC521F520C522F5236A2D502124F1
:1007D000246E2E502220256E2F502320266EFF0ED1
:1007E0002424276EFF0E2520286EFF0E2620296E5A
:1007F0002704000E2858020E2958D8A002EF04F052
:1008000004EF04F006EF04F0BCEF03F02B6A000ED7
:100810002A6E48EF04F092C507F593C508F513EC6E
:100820000DF02A501D24D96E2B501E20DA6E2DC5D6
:1008300007F52EC508F52FC509F55BEC08F0DF6E4E
:1008400027EC0DF0010E2D242D6E000E2E202E6EA5
:10085000000E2F202F6EC1EC0CF0E806D8B433EF59
:1008600004F035EF04F02BEF04F04AEC0CF0000933
:10087000D8A43DEF04F03FEF04F042EF04F02C6AFF
:1008800046EF04F0010E2C6E53EF04F02A4A2B2A97
:100890002A501F5C2B502058D8B051EF04F053EF72
:1008A00004F00BEF04F02C501200C30E206E210E4A
:1008B000076E050E086E1CC509F51DC50AF50C6A04
:1008C000180E0B6E31EC0BF02650D8B46AEF04F022
:1008D0006CEF04F070EF04F0DB0E206E7AEF04F0A2
:1008E000030E256476EF04F078EF04F07AEF04F05D
:1008F0006CEF04F0FE0E076EFF0E086E3F0E096EE1
:1009000007EC08F007C51EF508C51FF51E5027188F
:1009100009E11F502818D8B490EF04F092EF04F0CA
:1009200094EF04F0DB0E206E2C042B10D8B49BEF58
:1009300004F09DEF04F09FEF04F0DB0E206E300E0C
:100940002E182D102F103010D8B4A9EF04F0ABEFF3
:1009500004F0ADEF04F0DB0E206E550E311809E106
:10096000AA0E3218D8B4B7EF04F0B9EF04F0BBEF19
:1009700004F0DB0E206E550E331809E1AA0E341870
:10098000D8B4C5EF04F0C7EF04F0C9EF04F0DB0EF4
:10099000206E37503810D8B4D0EF04F0D2EF04F006
:1009A000D4EF04F0DB0E206E550E351809E1AA0EC7
:1009B0003618D8B4DEEF04F0E0EF04F0E2EF04F014
:1009C000DB0E206EDB0E2018D8B4E9EF04F0EBEF5D
:1009D00004F0FEEF04F0010E0501A06F810E206E01
:1009E000000E0F6E300E106E000E116E000E126EA5
:1009F00031C513F532C514F5E5EC08F020501200AE
:100A0000000E2C6E000E2D6E000E2E6E000E2F6E40
:100A100083EF05F02C501A24076E2D501B20086E12
:100A20002E501C20096E5BEC08F02B6E2B5021C55C
:100A3000D9F422C5DAF4DE1A000EDE1ADE1ADE1A46
:100A4000080E306E21C5D9F422C5DAF4DEC423F5D0
:100A5000DEC424F5DEC425F5DEC426F523A033EF7D
:100A600005F035EF05F060EF05F021C5D9F422C59A
:100A7000DAF4DEC423F5DEC424F5DEC425F5DEC4D5
:100A800026F5D8902632253224322332200E231820
:100A9000276E830E2418286EB80E2518296EED0EC9
:100AA00026182A6E21C5D9F422C5DAF427C5DEF44A
:100AB00028C5DEF429C5DEF42AC5DEF474EF05F09E
:100AC000010E236E21C5D9F422C5DAF42328DE52A3
:100AD00071EF05F0DE52DE52D890DD32DD32DD32CC
:100AE000DE32E82E6AEF05F030063050D8A47BEFF6
:100AF00005F07DEF05F022EF05F0010E2C26000E2B
:100B00002D222E222F221D502C5C1E502D581F509E
:100B10002E5820502F58D8A090EF05F092EF05F0F6
:100B20000AEF05F012001AC507F51BC508F51CC52C
:100B300009F5EBEC0CF007C527F508C528F509C544
:100B400029F5000E2B6E000E2C6E000E2D6E000E81
:100B50002E6E04EF06F02B502724076E2C50282011
:100B6000086E2D502920096E5BEC08F02A6E2A5081
:100B7000246E236A21C5D9F422C5DAF42350DE1A83
:100B80002450DD1A080E2F6E21C5D9F422C5DAF4DF
:100B9000DEC423F5DDC424F524AED1EF05F0D3EF98
:100BA00005F0EEEF05F021C5D9F422C5DAF4DEC474
:100BB00023F5DDC424F5D89023362436210E2318DE
:100BC000256E100E2418266E21C5D9F422C5DAF43C
:100BD00025C5DEF426C5DDF4F5EF05F021C5D9F411
:100BE00022C5DAF4D890DE36DD362F062F50D8A491
:100BF000FCEF05F0FEEF05F0C4EF05F0010E2B262B
:100C0000000E2C222D222E221D502B5C1E502C5803
:100C10001F502D5820502E58D8A011EF06F013EF7A
:100C200006F0ABEF05F012000E0E0C240E6E000E57
:100C30000D200F6E136A7E0E076E30EC0DF00F5014
:100C4000076E30EC0DF00EC507F530EC0DF013C556
:100C500008F5100EF5EC0CF0136E13C508F5000E38
:100C6000F5EC0CF0136E126A13C508F5680E122429
:100C7000D96EDA6A050EDA22DF50F5EC0CF0136E4D
:100C8000122A070E126447EF06F049EF06F034EF20
:100C900006F013C508F505019E51F5EC0CF0136E36
:100CA00013C508F505019F51F5EC0CF0136E13C543
:100CB00008F5000EF5EC0CF0136E13C508F5000EE8
:100CC000F5EC0CF0136E116A000E106E76EF06F064
:100CD00013C508F510500A24D96E11500B20DA6E96
:100CE000DF50F5EC0CF0136E104A112A0C50105C1A
:100CF0000D501158D8A07FEF06F081EF06F068EF95
:100D000006F01350FF0A076E30EC0DF0E70E1200EC
:100D1000000E136E250E146E010E106E000E0F6E77
:100D2000000ED6BE010E116E250E0B180A10D8B497
:100D30009CEF06F09EEF06F0BBEF06F0AEEF06F07C
:100D40000AC5D9F40BC5DAF413C5E1F414C5E2F40D
:100D5000DFC4E7F40A4A0B2A134A142A0F06D8A064
:100D600010060F2806E11028D8A4B9EF06F0BBEF53
:100D700006F0A0EF06F009C545F007C50CF508C55B
:100D80000DF509C50EF50DC50CF50EC50DF50E6A70
:100D90000C500001446F07C543F04151F80B0509A1
:100DA000416FD69E00015BC542F05A50426F4081B0
:100DB00011B002D0D69E01D0D68EF80E0001411798
:100DC00041AFE5EF06F0E7EF06F0EBEF06F0010EBE
:100DD000126EECEF06F0126A125012000501876BDA
:100DE000000E866F0201B2A7F8EF06F0FAEF06F0E8
:100DF00011EF07F00501868384518511D8B403EF04
:100E000007F005EF07F011EF07F002D811EF07F038
:100E10000500FA6E8451FD6E8551FE6EFF6AFA5030
:100E200012000201B2A317EF07F019EF07F030EF3D
:100E300007F00501868582518311D8B422EF07F0AF
:100E400024EF07F030EF07F002D830EF07F005008D
:100E5000FA6E8251FD6E8351FE6EFF6AFA501200E7
:100E60000201B2AD36EF07F038EF07F04FEF07F0B1
:100E70000501868180518111D8B441EF07F043EF1D
:100E800007F04FEF07F002D84FEF07F00500FA6EBA
:100E90008051FD6E8151FE6EFF6AFA50120086C5C8
:100EA00007F587C508F51200C30E576E8DEF07F0E2
:100EB000C18200015F9118EC0DF0A7EF07F0000E62
:100EC000316E000E326E000E336EFE0E346E2F0E3B
:100ED000356E000E366E000E376EFE0E386E2F0E1B
:100EE000396E000E3A6E19EC13F0576E810E5718DA
:100EF000D8A47DEF07F07FEF07F083EF07F0010E36
:100F00005F6EA7EF07F0030E5F6EA7EF07F0C192C9
:100F100083EC00F0576EA7EF07F05F500501DA6F22
:100F2000DB6BDB51000AD8B498EF07F0A7EF07F0AE
:100F3000DA51000AD8B45FEF07F0010AD8B487EF9E
:100F400007F0030AD8B458EF07F0A7EF07F0DB0E5D
:100F50005718D8A4AEEF07F0B0EF07F0B2EF07F0E4
:100F6000020E5F6E1200080100513F0B0501DD6F9C
:100F700022EE00F0DFBEBFEF07F0C2EF07F0010E78
:100F8000C3EF07F0000E1A6E1A50D8B4CAEF07F07C
:100F9000CCEF07F0D5EF07F0010E1C6EDDC5DCF5D8
:100FA000DD291F0BDE6F05EF08F0DE51DD19D8A437
:100FB000DCEF07F0DEEF07F0E0EF07F0CCEF07F033
:100FC000DC51DD19D8A4E7EF07F0E9EF07F0EEEF09
:100FD00007F01C6A010EDF6F05EF08F01C6A010EB6
:100FE000E06F030E1B6E000E126E060E136E1B0ECC
:100FF000146E050E156E040E166EDE51400A176E45
:10100000196A010E186EA7EC0AF01C501200F7C402
:101010000AF50B6A0C6A0D6A0CC50DF50BC50CF5CB
:101020000AC50BF50A6AF8C40EF50F6A106A116A50
:101030000FC511F50EC510F50F6A0E6A0A500E1095
:10104000126E0B500F10136E0C501010146E0D50CA
:101050001110156EF6501210186E1350196E1450B0
:101060001A6E15501B6E09C5F8F407C50AF508C5B8
:101070000BF509C50CF50BC50AF50CC50BF50C6A8B
:101080000A50F76E07C5F6F40900F5C416F5176A9D
:101090000800F5500B6E0A6A0A5016120B50171210
:1010A0001AC5F8F419C5F7F418C5F6F416C507F50E
:1010B00017C508F51200F7C40AF50B6A0C6A0D6A29
:1010C0000CC50DF50BC50CF50AC50BF50A6AF8C47D
:1010D0000EF50F6A106A116A0FC511F50EC510F5ED
:1010E0000F6A0E6A0A500E10126E0B500F10136E1C
:1010F0000C501010146E0D501110156EF650121089
:10110000166E1350176E1450186E1550196E09C5CF
:10111000F8F407C50AF508C50BF509C50CF50BC5AC
:101120000AF50CC50BF50C6A0A50F76E07C5F6F404
:10113000080018C5F8F417C5F7F416C5F6F4F5500D
:101140001200BE6ABF6AC06A020EC16EC26A0401A2
:10115000026B0A6B126B1A6B226BC668C768BF0EF4
:10116000C86EFD0EC96E0F0ECA6E006908693F0E8B
:10117000106FFD0E186F070E206F016B096B116B5E
:10118000196B216B03690B6913691B69070E236FC8
:1011900004690C6914691C690F0E246F0201896BC4
:1011A000886B876B866B170E726F200E176F0401AA
:1011B000056B066B076B0D6B0E6B0F6B156B166B70
:1011C000176B256B266B276B12000FC518F510C522
:1011D00019F511C51AF513C515F514C516F51CEF4B
:1011E00009F015C507F516C508F513EC0DF018C57F
:1011F00007F519C508F51AC509F5DDEC09F0176EF4
:10120000C1EC0CF0E806D8B408EF09F00AEF09F0D9
:1012100000EF09F027EC0DF01750D8B412EF09F0E9
:1012200014EF09F016EF09F028EF09F0000E182668
:10123000010E1922000E1A221828FF0E1958010E4D
:101240001A58D8A026EF09F028EF09F0F1EF08F0BE
:101250001200FA0EF66E190EF76E000EF86E01EE21
:10126000DCF110EE0EF00900F5C4EEF4E550E150AB
:10127000FAE102EE00F010EE14F1EE6AE550E150F2
:10128000FCE1E250FAE101EE00F310EE00F1EE6A4B
:10129000E550E150FCE1E250FAE101EE00F2190EF6
:1012A000EE6AE806FDE101EE60F15E0EEE6AE80628
:1012B000FDE101EE58F1080EEE6AE806FDE10401D9
:1012C000080E5D6F000E5E6F000E5F6F000EF86E11
:1012D0000001D7EF0CF00F6A116A0000112A1128E3
:1012E000D8A475EF09F077EF09F06DEF09F0000E63
:1012F000076E000E086E380E096EAFEC0BF0106E24
:10130000AA0E1018D8B487EF09F089EF09F091EF11
:1013100009F01004D8A48FEF09F091EF09F0A5EFC0
:1013200009F0010E0F6EAA0E086E550E076E13EC33
:101330000DF0000E076E000E086E380E096E000EDE
:101340000A6E05EC0BF027EC0DF00F5012000001B7
:101350005F8179EC0BF0536E810E5318D8A4B3EF74
:1013600009F0B5EF09F0DAEF09F05F6A6BEC09F00C
:10137000546E96EC0BF0810AD8B4C1EF09F0C4EFBB
:1013800009F0010EC5EF09F0000E556E5450D8A4B7
:10139000CCEF09F0CEEF09F0DCEF09F05550D8B4EE
:1013A000D4EF09F0D6EF09F0DCEF09F0020E5F6E22
:1013B000DCEF09F0030E5F6E1200000ED6BE010EC8
:1013C0000D6E09C545F007C50AF508C50BF509C539
:1013D0000CF50BC50AF50CC50BF50C6A0A5000019B
:1013E000446F4151F80B0609416FD69E00015BC561
:1013F00042F05A50426F40810DB002D0D69E01D0CB
:10140000D68EF80E0001411741AF09EF0AF00BEF3D
:101410000AF00FEF0AF0010E0E6E10EF0AF00E6ADE
:101420000E501200D68A000ED6BE010E096ED69E50
:10143000550E0401596FAA0E596F59915F6B5E6B7F
:10144000080E5D6F550E596FAA0E596F598109B07C
:1014500002D0D69E01D0D68EAF90D6806E0E076E8B
:101460001A0E086E0EEC0DF0B490D682700E076E58
:101470001A0E086E09EC0DF0B890D684720E076E45
:101480001A0E086E04EC0DF0120012C507F513C514
:1014900008F514C509F515C50AF50C6A020E0B6EA0
:1014A00031EC0BF0020E1224076E000E1320086EB2
:1014B00020EE02F01450D9261550DA22DEC409F5C8
:1014C000DDC40AF520EE01F01450D9261550DA22B9
:1014D000DF50166E16500B6E0C6A31EC0BF020EEDE
:1014E00001F01450D9261550DA22DF50020F1200F5
:1014F0000201A26BA46BA56BA66BA76BA86BA96B73
:10150000AA6BB00EAB6F800EAC6F080EAD6F8A0E7B
:10151000AE6FAF6B2E0EB06FB16B800EB26FB36B50
:101520006A0E076E1A0E086E75EC0CF0680E076EE8
:101530001A0E086E67EC0CF0660E076E1A0E086E37
:1015400059EC0CF00501876B000E866F1200020E3D
:1015500018240501966F000E1920976F12C5D9F453
:1015600013C5DAF417C5DFF420EE01F01250D926C6
:101570001350DA2216C5DFF414501510D8B4C3EF97
:101580000AF0C5EF0AF0D5EF0AF0020E1224076E3A
:10159000000E1320086E14C509F515C50AF518C507
:1015A0000BF519C50CF531EC0BF01200096E0A6A47
:1015B000E6EF0AF0010E0A6E03EF0BF0030E0A6E5F
:1015C00003EF0BF0050E0A6E03EF0BF00950076EE8
:1015D000086A0850000AD8B4F0EF0AF003EF0BF0E5
:1015E0000750240AD8B4DEEF0AF0660AD8B4DAEF5E
:1015F0000AF03C0AD8B4E2EF0AF0A50AD8B4DAEF50
:101600000AF003EF0BF00A501200000ED6BE010ED6
:101610000E6E09C545F007C50BF508C50CF509C5E3
:101620000DF50CC50BF50DC50CF50D6A0B50000141
:10163000446F07C543F00AC546F04151F80B030952
:10164000416FD69E00015BC542F05A50426F408107
:101650000EB002D0D69E01D0D68EF80E00014117F2
:10166000120009C50FF50AC510F507C50DF508C527
:101670000EF54BEF0BF00FC5D9F410C5DAF4DF50BF
:10168000116E0F4A102A0DC5D9F40EC5DAF411C532
:10169000DFF40D4A0E2A0B06D8A00C060B2806E133
:1016A0000C28D8A456EF0BF058EF0BF03BEF0BF0E3
:1016B000120007C50DF508C50EF567EF0BF00DC557
:1016C000D9F40EC5DAF409C5DFF40D4A0E2A0B066B
:1016D000D8A00C060B2806E10C28D8A472EF0BF05A
:1016E00074EF0BF05FEF0BF007C507F508C508F5C1
:1016F0001200010E0A6E130E096EC6EC0BF00E6E90
:101700000501A16BA26BE70E0E18D8B48AEF0BF09F
:101710008CEF0BF091EF0BF00D6AC30E0C6E94EF93
:101720000BF00D6A810E0C6E0C501200000E306E24
:10173000300E316E000E326EFE0E336ECF0E346EF2
:10174000010E356E000E366EFE0E376EFF0E386ED1
:10175000010E396EFBEC16F0526E5250120009C5A4
:1017600045F007C50AF508C50BF509C50CF50BC50D
:101770000AF50CC50BF50C6A0A500001446F07C549
:1017800043F0F80E411740814651120009500A10EB
:10179000D8B4CDEF0BF0CFEF0BF0D9EF0BF009C5BC
:1017A0009CF50AC59DF578EC0AF0E70E0B6EDBEFB1
:1017B0000BF0960E0B6E0B50120005018C518D1123
:1017C000D8B4E5EF0BF0E7EF0BF0F3EF0BF002D836
:1017D000F3EF0BF00500FA6E8C51FD6E8D51FE6E2D
:1017E000FF6AFA501200120005018A518B11D8B419
:1017F000FCEF0BF0FEEF0BF00AEF0CF002D80AEF53
:101800000CF00500FA6E8A51FD6E8B51FE6EFF6A78
:10181000FA5012001200050188518911D8B413EF53
:101820000CF015EF0CF021EF0CF002D821EF0CF0CA
:101830000500FA6E8851FD6E8951FE6EFF6AFA50FE
:10184000120012000501A205D8A429EF0CF02BEF1D
:101850000CF037EF0CF0020E086E230E076EE60E4A
:10186000E82EFED7072EFCD7082EFAD7FF0012006D
:101870000501BD6B000EBC6F000E076E080E086EF2
:101880000A6A000E096E010E0C6E130E0B6E59ECF7
:101890000BF01200000141AF50EF0CF052EF0CF0D2
:1018A00056EF0CF0010E076E57EF0CF0076A075069
:1018B000120007500810D8B460EF0CF062EF0CF083
:1018C00066EF0CF007C580F508C581F512000750DA
:1018D0000810D8B46EEF0CF070EF0CF074EF0CF051
:1018E00007C582F508C583F5120007500810D8B463
:1018F0007CEF0CF07EEF0CF082EF0CF007C584F566
:1019000008C585F512000501956B000E946F936B69
:10191000000E926F8F6B000E8E6F916B000E906FAA
:101920001200FFFFFAC401F5FBC402F5AF90DDEC35
:101930000BF002C5FBF401C5FAF41100FAC403F57B
:10194000FBC404F5B490F4EC0BF004C5FBF403C540
:10195000FAF41100FAC405F5FBC406F5B8900BECD7
:101960000CF006C5FBF405C5FAF41100E1EC0CF02F
:10197000A1EC08F021EC0DF078EC0AF012EC0AF082
:101980001200000140B1C7EF0CF0CAEF0CF0010EDD
:10199000CBEF0CF0000E12000201B0A3D2EF0CF05E
:1019A000D5EF0CF0010ED6EF0CF0000E1200B6ECE5
:1019B0000CF0A7EC09F054EC07F0DBEF0CF081EF32
:1019C00000F0600E0001AD6FAF6BB36B080EB16F2E
:1019D000B06BAC6B1200000E0714076EFF0E0814FC
:1019E000086E010E0914096E1200096E09C507F58B
:1019F00030EC0DF008500924120000000100000036
:101A000064000102000F010107C588F508C589F5CA
:101A1000120007C58AF508C58BF5120007C58CF5BD
:101A200008C58DF5120008505A6E07C55BF5120007
:101A3000FC6AE06A00EF18F012000750076E086AAF
:101A400012002AEC0DF012000501A06B12005A6A78
:101A50005B6A12000001419F12000201A1511200B5
:101A600007C5A3F2120012001200120011001200AA
:101A700012001200FFFFFFFFFFFFFFFFFFFFFFFF4E
:101A8000FFFFFFFFFFFFFFFFFFFFFFFFFFFFFFFF66
:101A9000FFFFFFFFFFFFFFFFFFFFFFFFFFFFFFFF56
:101AA000FFFFFFFFFFFFFFFFFFFFFFFFFFFFFFFF46
:101AB000FFFFFFFFFFFFFFFFFFFFFFFFFFFFFFFF36
:1026000000F01400005A1A601A9819000000000027
:1026100000000000000000000000000000000000BA
:1026200000DC0D000000000000EA18CE18B218000F
:1026300000000501D669D769D869D969D46B030E42
:1026400038243B6E000E39203C6E000E3A203D6E61
:1026500031503B5C32503C5833503D58D8A033EF9A
:1026600013F035EF13F060EF13F031503B6E325042
:102670003C6E33503D6E3E6A34503B243F6E3550C5
:102680003C20406E36503D20416E37503E20426E19
:102690003850436E3950446E3A50456E466A3F504A
:1026A000435C405044584150455842504658D8B079
:1026B0005CEF13F05EEF13F060EF13F0010ED46FD8
:1026C000D451D8A466EF13F069EF13F0010E6AEF4E
:1026D00013F0000ED26F030E38243B6E000E39202B
:1026E0003C6E000E3A203D6E020E3D5CD8B07BEF92
:1026F00013F07EEF13F0010E7FEF13F0000ED36F97
:102700003450351036103710D8B489EF13F08BEFF2
:1027100013F0ACEF13F031503B6E32503C6E33503F
:102720003D6E3E6A34503B243F6E35503C20406E37
:1027300036503D20416E37503E20426E42500CE1F3
:102740003F04000E4058020E4158D8A0AAEF13F0E3
:10275000ACEF13F0B0EF13F0E70ED56F7BEF14F092
:10276000D251D8A4B6EF13F0B8EF13F0C0EF13F0C6
:10277000D351D8B4BEEF13F0C0EF13F0C4EF13F091
:10278000240ED56F7BEF14F031C51AF532C51BF559
:1027900033C51CF534C51DF535C51EF536C51FF509
:1027A00037C520F5D60E216E050E226E00EC05F021
:1027B00038C507F539C508F53AC509F55BEC08F0E9
:1027C0003B6E3B500501BE6FBF6BC06BC16B010E12
:1027D0003824076E000E3920086E000E3A20096E6C
:1027E0005BEC08F03B6E3B500501C26FC36BC46BE2
:1027F000C56B020E3824076E000E3920086E000EDD
:102800003A20096E5BEC08F03B6E3B500501C66F49
:10281000C76BC86BC96B030E3824076E000E3920D6
:10282000086E000E3A20096E5BEC08F03B6E3B50E0
:102830000501CA6FCB6BCC6BCD6BCAC53BF5CBC565
:102840003CF5CCC53DF5CDC53EF53BC53EF53D6AF5
:102850003C6A3B6AC6C53FF5C7C540F5C8C541F5EA
:10286000C9C542F540C542F53FC541F5406A3F6ADA
:10287000C2C544F5C3C545F5C4C546F5436A3F50D6
:102880004310476E40504410486E41504510496E09
:10289000425046104A6E3B5047104B6E3C50481019
:1028A0004C6E3D5049104D6E3E504A104E6EBE511A
:1028B0004B10CE6FBF514C10CF6FC0514D10D06F29
:1028C000C1514E10D16FD651CE190FE1D751CF194A
:1028D0000CE1D851D01909E1D951D119D8B473EF0D
:1028E00014F075EF14F079EF14F0DB0ED56F7BEF79
:1028F00014F0810ED56FD551120030C507F531C5E2
:1029000008F532C509F51DEC0DF007C545F508C5FC
:1029100046F530C507F531C508F532C509F5EBECCC
:102920000CF007C542F508C543F509C544F5335019
:102930003410D8A49EEF14F0A0EF14F0A4EF14F01C
:10294000020E496EBEEF15F03004000E3158020E33
:102950003258D8A0AEEF14F0B0EF14F0B2EF14F08C
:10296000A0EF14F035503610D8B4B9EF14F0BBEF27
:1029700014F0A0EF14F03504010E3658D8B0C3EFB0
:1029800014F0C5EF14F0A0EF14F035C537F536C5D7
:1029900038F5396A305037243A6E315038203B6E62
:1029A000325039203C6EFF0E3A243D6EFF0E3B2024
:1029B0003E6EFF0E3C203F6E3D04000E3E58020E60
:1029C0003F58D8A0E6EF14F0E8EF14F0EAEF14F067
:1029D000A0EF14F02AEC0DF045504610D8B4F3EFF8
:1029E00014F0F5EF14F008EF15F042C51AF543C5E1
:1029F0001BF544C51CF5000E1D6E070E1E6E45C569
:102A00001FF546C520F5A9EC03F0496E09EF15F056
:102A1000496A4950D8A40FEF15F011EF15F0BCEF3B
:102A200015F035504524476E36504620486E470411
:102A3000010E4858D8A01FEF15F021EF15F023EF35
:102A400015F0A0EF14F0000E4524076E070E462087
:102A5000086E33C509F534C50AF535C50BF536C51D
:102A60000CF531EC0BF047500008406E4850D8A0F0
:102A7000E82A0108416E40504110D8B442EF15F0E9
:102A800044EF15F061EF15F047C537F548C538F547
:102A9000396A425037241A6E435038201B6E445016
:102AA00039201C6E000E47241D6E070E48201E6E36
:102AB00040C51FF541C520F5A9EC03F0496E62EF52
:102AC00015F0496A4950D8A468EF15F06AEF15F07F
:102AD000BCEF15F094C507F595C508F513EC0DF09E
:102AE00042C507F543C508F544C509F5DDEC09F015
:102AF0000009D8A47EEF15F080EF15F083EF15F0F4
:102B0000496A85EF15F0010E496EC1EC0CF0E8063C
:102B1000D8B48DEF15F08FEF15F085EF15F027EC99
:102B20000DF04950D8A497EF15F099EF15F0BCEFD0
:102B300015F08EC507F58FC508F513EC0DF042C5ED
:102B400007F543C508F544C509F5000E0A6E070EE2
:102B50000B6E88EC06F00009D8A4B1EF15F0B3EFC6
:102B600015F0B6EF15F0496AB8EF15F0010E496E91
:102B700027EC0DF0BEEF15F0010E496E4950120022
:102B8000EEEC06F007500810D8B4C9EF15F0CBEF03
:102B900015F0EFEF16F00201B297B293B29DEFEF8E
:102BA00016F02DEC0DF00F6ECEEF16F07E0E0F1816
:102BB000D8A4DDEF15F0DFEF15F0EFEF16F0010E02
:102BC0005E6EEFEF16F00F5005019B6F9A6B020ED1
:102BD0005E6EEFEF16F00F5005019A13596A000E62
:102BE000586E5D6A996B000E986F5C6A9A519B11E2
:102BF000D8A4FDEF15F0FFEF15F002EF16F05E6AB6
:102C0000EFEF16F0030E5E6EEFEF16F00F505D263D
:102C100058505910D8A40FEF16F011EF16F01CEF12
:102C200016F0900E0F18D8B418EF16F01AEF16F031
:102C30001CEF16F0010E5C6E5C50D8A422EF16F06B
:102C400024EF16F089EF16F058505910D8B42BEF36
:102C500016F02DEF16F042EF16F0595007E1090E6D
:102C6000585CD8B036EF16F038EF16F042EF16F099
:102C7000670E5824D96E050E5920DA6E0FC5DFF4A1
:102C800089EF16F0595009E1090E585CD8A04BEFB6
:102C900016F04DEF16F062EF16F0595007E10B0EEB
:102CA000585CD8B056EF16F058EF16F062EF16F0F9
:102CB000950E5824D96E050E5920DA6E0FC5DFF433
:102CC00089EF16F0595009E10C0E585CD8A06BEF53
:102CD00016F06DEF16F089EF16F005019C51985D26
:102CE0009D519959D8B077EF16F079EF16F085EF2E
:102CF00016F098510924D96E99510A20DA6E0FC541
:102D0000DFF4984B992B89EF16F05E6A690EFAEFA3
:102D100016F0584A592A05019A51585C9B51595846
:102D2000D8A095EF16F097EF16F0EFEF16F0040E1F
:102D30005E6EEFEF16F05E6A0F505DC50DF50E6A20
:102D40000D26000E0E220D50FF0AD8A4AAEF16F091
:102D5000ACEF16F0C1EF16F05C50D8B4B2EF16F03D
:102D6000B4EF16F0B6EF16F0EFEF16F00BC5D9F48E
:102D70000CC5DAF498C5DEF499C5DDF4E70EFAEF78
:102D800016F05C50D8B4C7EF16F0C9EF16F0CBEFD1
:102D900016F0EFEF16F03C0EFAEF16F05E500D6EE7
:102DA0000E6A0E50000AD8B4D8EF16F0EFEF16F006
:102DB0000D50000AD8B4D6EF15F0010AD8B4E3EFED
:102DC00015F0030AD8B4EBEF15F0010AD8B406EFFA
:102DD00016F0070AD8B49BEF16F0EFEF16F0CCEC24
:102DE0000CF00009D8A4F7EF16F0F9EF16F0D1EFC8
:102DF00015F0180E1200506851684E6A010E372403
:102E00003A6E000E38203B6E000E39203C6E30507A
:102E10003A5C31503B5832503C58D8A012EF17F072
:102E200014EF17F03FEF17F030503A6E31503B6E11
:102E300032503C6E3D6A33503A243E6E34503B2053
:102E40003F6E35503C20406E36503D20416E37502D
:102E5000426E3850436E3950446E456A3E50425C73
:102E60003F5043584050445841504558D8B03BEF2C
:102E700017F03DEF17F03FEF17F0010E4E6E4E507A
:102E8000D8A445EF17F048EF17F0010E49EF17F0FF
:102E9000000E4C6E010E37243A6E000E38203B6E49
:102EA000000E39203C6E020E3C5CD8B05AEF17F091
:102EB0005DEF17F0010E5EEF17F0000E4D6E335010
:102EC000341035103610D8B468EF17F06AEF17F0E9
:102ED0008BEF17F030503A6E31503B6E32503C6EF3
:102EE0003D6A33503A243E6E34503B203F6E35509D
:102EF0003C20406E36503D20416E41500CE13E0476
:102F0000000E3F58020E4058D8A089EF17F08BEF03
:102F100017F08FEF17F0E70E4F6EEDEF17F04C50F4
:102F2000D8A495EF17F097EF17F09FEF17F04D50DB
:102F3000D8B49DEF17F09FEF17F0A3EF17F0240E12
:102F40004F6EEDEF17F030C51AF531C51BF532C5E0
:102F50001CF533C51DF534C51EF535C51FF536C541
:102F600020F5500E216E050E226E93EC05F037C54C
:102F700007F538C508F539C509F55BEC08F03A6E78
:102F80003A50486E496A010E3724076E000E382009
:102F9000086E000E3920096E5BEC08F03A6E3A506C
:102FA0004A6E4B6A4A503B6E3A6A48503A10466E37
:102FB00049503B10476E5050461809E15150471890
:102FC000D8B4E5EF17F0E7EF17F0EBEF17F0DB0EF3
:102FD0004F6EEDEF17F0810E4F6E4F50120007C588
:102FE00094F508C595F509C592F50AC593F50DC583
:102FF0008EF50EC58FF50BC590F50CC591F5120039
:10300000FFFFFFFFFFFFFFFFFFFFFFFFFFFFFFFFD0
:10301000FFFFFFFFFFFFFFFFFFFFFFFFFFFFFFFFC0
:10302000FFFFFFFFFFFFFFFFFFFFFFFFFFFFFFFFB0
:10303000FFFFFFFFFFFFFFFFFFFFFFFFFFFFFFFFA0
:107FF000FFFFFFFFFFFFFFFFFFFFFFFF2C6172ABE3
:020000040030CA
:080000008FFFEFFF9FFFFFFFE0
:01000900FFF7
:00000001FF
