:1000000081EF00F0FFFFFFFFB005B005B005B005C0
:100010004000B0054000B0055E05B005B005B00574
:10002000B005B005B005B005B00540004000400087
:10003000B005B005B005B005B005B005B005B00518
:10004000B005B005B005B005B005B005B005B00508
:1000500040004000B005B005B005B005B005400057
:10006000B005B005B005B0056405B005B005B00534
:10007000B005B005B005B005B005B005B005B005D8
:100080004000B005B005B005B005B005B005B0053D
:10009000B005B005B005B005B005B005B005B005B8
:1000A0004000B005400040006A05B005B005B0054D
:1000B000B005B005B005B005B005B005B005B00598
:1000C000B005B005B005B005B005B005B005B00588
:1000D000B005B005B005B005B005B005B005B00578
:1000E000B005B005B005B0054000B005B005B005DD
:1000F0004000400040004000B005B005B005B0052C
:10010000FF00FFEF06F00501A151D8A48AEF00F02F
:100110008CEF00F08EEF00F026EC0AF00501EE6B9C
:10012000EC0E096E230E0A6ED50E0B6E050E0C6ECC
:100130005CEC14F00501EF6F690EEF19D8A4A3EF82
:1001400000F0A5EF00F0C1EF00F0BD0EED6F010E65
:10015000F66F010EEE6FA30E126E050E136EEE0E0D
:10016000146E050E156E040E166EF451400A176ECD
:10017000196A010E186EABEC08F050EC0AF022EF91
:1001800001F0E70EEF19D8A4C8EF00F0CAEF00F0B5
:10019000F3EF00F0D65107E1020ED55DD8B0D3EFF2
:1001A00000F0D5EF00F0DDEF00F0AA0EED6F020ECB
:1001B000EE6F010EF66FABEF00F089EC05F0000971
:1001C000D8B4E5EF00F0E7EF00F0EFEF00F067ECF8
:1001D00001F00501ED6F010EF56FBDEF00F00501B7
:1001E000ED69BDEF00F03C0EEF19D8A4FAEF00F076
:1001F000FCEF00F013EF01F0ED69010EF66FA30EB6
:10020000126E050E136EEE0E146E050E156E040EB4
:10021000166EF451400A176E196A010E186EABEC97
:1002200008F022EF01F0180EEF19D8A41AEF01F030
:100230001CEF01F020EF01F03C0EED6F22EF01F01A
:10024000180EED6F0501F651D8B429EF01F02BEF30
:1002500001F045EF01F0A30E0B6E050E0C6E96C576
:100260000DF597C50EF54DEC04F00501EF6FE70EA7
:10027000EF19D8B43EEF01F040EF01F042EF01F08A
:10028000180EED6FF66B65EF01F0F551D8B44BEF3A
:1002900001F04DEF01F065EF01F0BC0E0B6E050EA5
:1002A0000C6E96C50DF597C50EF54DEC04F00501E5
:1002B000EF6FE70EEF19D8B460EF01F062EF01F0D5
:1002C00064EF01F0180EED6FF56BED51120024EFA5
:1002D00002F03FEC02F0810E566E3DEF02F09AEC18
:1002E00009F0566EF00E5618D8A479EF01F07BEFA6
:1002F00001F090EF01F0070E536EBC0E126E050E6A
:10030000136E530E146E050E156E050E166EF3C5A4
:1003100017F5196A010E186EABEC08F03DEF02F00C
:10032000810E5618D8B497EF01F099EF01F09DEFC8
:1003300001F0020E556E9FEF01F0010E556EBC0EDE
:10034000126E050E136E550E146E050E156E010E0F
:10035000166EF3C517F5196A010E186EABEC08F0AE
:100360003DEF02F0810E566E4DEC0BF0BC0E126E9E
:10037000050E136E000E146E000E156E010E166E35
:10038000F3C517F5196A000E186EABEC08F03DEFD7
:1003900002F0EE0E4A6E230E4B6EFC0E0501D525C3
:1003A0004C6EFF0ED6214D6E8BEC16F0566E810E04
:1003B0005618D8A4DEEF01F0E0EF01F0E2EF01F013
:1003C000B6EF01F05650DAEC08F0546EBC0E126E27
:1003D000050E136E540E146E050E156E050E166E78
:1003E000F3C517F5196A010E186EABEC08F03DEF76
:1003F00002F0BC0E126E050E136E000E146E000E8F
:10040000156E010E166EF3C517F5196A000E186EFB
:10041000ABEC08F0010E0501A26F6BEF01F0420E8C
:10042000566EBC0E126E050E136E000E146E000E8C
:10043000156E020E166EF3C517F5196A000E186ECA
:10044000ABEC08F03DEF02F028EEEDF3DF50010ACF
:10045000D8B469EF01F0030AD8B4B2EF01F0010A91
:10046000D8B4C9EF01F0070AD8B46FEF01F0010A60
:10047000D8B4F9EF01F00FEF02F056501200600E01
:10048000196EE30E1A6E160E1B6E000E1C6EFDC565
:100490001DF5FEC51EF5FFC51FF5FAC520F5FBC508
:1004A00021F5FCC522F5F7C523F5F8C524F5F9C5F6
:1004B00025F57CC528F57DC529F57EC52AF57FC5BE
:1004C0002BF5010E286E030E296E200E2A6E050EE6
:1004D0002B6E78C52CF579C52DF57AC52EF57BC523
:1004E0002FF5020E2C6E030E2D6E1D0E2E6E050EB8
:1004F0002F6E74C530F575C531F576C532F577C503
:1005000033F5030E306E030E316E230E326E050E80
:10051000336E70C534F571C535F572C536F573C5E2
:1005200037F5040E346E040E356E190E366E050E58
:10053000376E2D5029C517F5186A1726000E182298
:1005400031501726000E182235501726000E18229B
:100550000A0E17240501966F000E1820976FF3C539
:10056000BCF5010EBD6F276A020E266EBC0E262456
:10057000126E050E2720136E280E146E050E156ED2
:1005800048EC08F0176E17502626000E2722BC0EE6
:100590002624126E050E2720136E2C0E146E050EE7
:1005A000156E48EC08F0176E17502626000E27220D
:1005B000BC0E2624126E050E2720136E300E146E0C
:1005C000050E156E48EC08F0176E17502626000E23
:1005D0002722BC0E2624126E050E2720136E340E21
:1005E000146E050E156E48EC08F012001AC52DF5B4
:1005F0001BC52EF51CC52FF5010E2C6E53EC0BF010
:100600001D501E10D8A407EF03F009EF03F00DEF03
:1006100003F0020E2C6EA0EF03F02D04000E2E58F6
:10062000020E2F58D8A017EF03F019EF03F01BEFBD
:1006300003F009EF03F01F502010D8B422EF03F0AD
:1006400024EF03F009EF03F01F04010E2058D8B087
:100650002CEF03F02EEF03F009EF03F01FC521F597
:1006600020C522F5236A2D502124246E2E502220ED
:10067000256E2F502320266EFF0E2424276EFF0E9A
:100680002520286EFF0E2620296E2704000E2858EC
:10069000020E2958D8A04FEF03F051EF03F053EFAB
:1006A00003F009EF03F02B6A000E2A6E95EF03F0BA
:1006B00092C507F593C508F53CEC0BF02A501D24B4
:1006C000D96E2B501E20DA6E2DC507F52EC508F504
:1006D0002FC509F531EC06F0DF6E50EC0BF0010E82
:1006E0002D242D6E000E2E202E6E000E2F202F6E2C
:1006F000EBEC0AF0E806D8B480EF03F082EF03F0E9
:1007000078EF03F0F1EC17F00009D8A48AEF03F0BA
:100710008CEF03F08FEF03F02C6A93EF03F0010EE0
:100720002C6EA0EF03F02A4A2B2A2A501F5C2B5074
:100730002058D8B09EEF03F0A0EF03F058EF03F07D
:100740002C501200C30E206E210E076E050E086E8F
:100750001CC509F51DC50AF50C6A180E0B6E35ECA3
:1007600009F02650D8B4B7EF03F0B9EF03F0BDEFAE
:1007700003F0DB0E206EC7EF03F0030E2564C3EF1A
:1007800003F0C5EF03F0C7EF03F0B9EF03F0FE0E7F
:10079000076EFF0E086E3F0E096EDDEC05F007C513
:1007A0001EF508C51FF51E50271809E11F5028180F
:1007B000D8B4DDEF03F0DFEF03F0E1EF03F0DB0E81
:1007C000206E2C042B10D8B4E8EF03F0EAEF03F00E
:1007D000ECEF03F0DB0E206E300E2E182D102F10D4
:1007E0003010D8B4F6EF03F0F8EF03F0FAEF03F0AF
:1007F000DB0E206E550E311809E1AA0E3218D8B45E
:1008000004EF04F006EF04F008EF04F0DB0E206EB6
:10081000550E331809E1AA0E3418D8B412EF04F0BB
:1008200014EF04F016EF04F0DB0E206E3750381092
:10083000D8B41DEF04F01FEF04F021EF04F0DB0E3D
:10084000206E550E351809E1AA0E3618D8B42BEFD4
:1008500004F02DEF04F02FEF04F0DB0E206EDB0E22
:100860002018D8B436EF04F038EF04F04BEF04F062
:10087000010E0501A06F810E206E000E0F6E300E6E
:10088000106E000E116E000E126E31C513F532C5DA
:1008900014F5BBEC06F0205012000E0E0D240F6E66
:1008A000000E0E20106E146A7E0E73EC0AF01050CB
:1008B00073EC0AF00F5073EC0AF014C509F5100E32
:1008C00026EC0BF0146E14C509F5000E26EC0BF0A7
:1008D000146E136A14C509F5680E1324D96EDA6A0A
:1008E000050EDA22DF5026EC0BF0146E132A070EE9
:1008F00013647DEF04F07FEF04F06AEF04F014C599
:1009000009F505019E5126EC0BF0146E14C509F58E
:1009100005019F5126EC0BF0146E14C509F5000E6D
:1009200026EC0BF0146E14C509F5000E26EC0BF046
:10093000146E126A000E116EACEF04F014C509F5C6
:1009400011500B24D96E12500C20DA6EDF5026ECB9
:100950000BF0146E114A122A0D50115C0E501258F1
:10096000D8A0B5EF04F0B7EF04F09EEF04F01450F8
:10097000FF0A73EC0AF0E70E1200000E136E250E4C
:10098000146E010E106E000E0F6E000ED6BE010E1C
:10099000116E250E0B180A10D8B4D1EF04F0D3EF66
:1009A00004F0F0EF04F0E3EF04F00AC5D9F40BC54E
:1009B000DAF413C5E1F414C5E2F4DFC4E7F40A4A3B
:1009C0000B2A134A142A0F06D8A010060F2806E196
:1009D0001028D8A4EEEF04F0F0EF04F0D5EF04F007
:1009E00009C545F007C50CF508C50DF509C50EF597
:1009F0000DC50CF50EC50DF50E6A0C500001446FC7
:100A000007C543F04151F80B0509416FD69E00011F
:100A10005BC542F05A50426F408111B002D0D69E61
:100A200001D0D68EF80E0001411741AF1AEF05F044
:100A30001CEF05F020EF05F0010E126E21EF05F01E
:100A4000126A125012000501876B000E866F0201B8
:100A5000B2A72DEF05F02FEF05F046EF05F00501E9
:100A6000868384518511D8B438EF05F03AEF05F04C
:100A700046EF05F002D846EF05F00500FA6E845106
:100A8000FD6E8551FE6EFF6AFA5012000201B2A39C
:100A90004CEF05F04EEF05F065EF05F0050186859A
:100AA00082518311D8B457EF05F059EF05F065EF87
:100AB00005F002D865EF05F00500FA6E8251FD6E73
:100AC0008351FE6EFF6AFA5012000201B2AD6BEF65
:100AD00005F06DEF05F084EF05F00501868180518A
:100AE0008111D8B476EF05F078EF05F084EF05F0CA
:100AF00002D884EF05F00500FA6E8051FD6E815139
:100B0000FE6EFF6AFA50120086C507F587C508F524
:100B100012002301EC513F0B0501F36F28EEECF3BB
:100B2000DFBE95EF05F098EF05F0010E99EF05F0A7
:100B3000000E1A6E1A50D8B4A0EF05F0A2EF05F01F
:100B4000ABEF05F0010E1C6EF3C5F2F5F3291F0B98
:100B5000F46FDBEF05F0F451F319D8A4B2EF05F010
:100B6000B4EF05F0B6EF05F0A2EF05F0F251F3197E
:100B7000D8A4BDEF05F0BFEF05F0C4EF05F01C6A87
:100B8000010EF56FDBEF05F01C6A010EF66F030E28
:100B90001B6EA30E126E050E136E1B0E146E050E49
:100BA000156E040E166EF451400A176E196A010E86
:100BB000186EABEC08F01C501200F7C40AF50B6A73
:100BC0000C6A0D6A0CC50DF50BC50CF50AC50BF5C5
:100BD0000A6AF8C40EF50F6A106A116A0FC511F59A
:100BE0000EC510F50F6A0E6A0A500E10126E0B50E9
:100BF0000F10136E0C501010146E0D501110156E56
:100C0000F6501210186E1350196E14501A6E1550BB
:100C10001B6E09C5F8F407C50AF508C50BF509C52B
:100C20000CF50BC50AF50CC50BF50C6A0A50F76EEE
:100C300007C5F6F40900F5C416F5176A0800F55063
:100C40000B6E0A6A0A5016120B5017121AC5F8F4E6
:100C500019C5F7F418C5F6F416C507F517C508F554
:100C60001200F7C40AF50B6A0C6A0D6A0CC50DF583
:100C70000BC50CF50AC50BF50A6AF8C40EF50F6A28
:100C8000106A116A0FC511F50EC510F50F6A0E6ACC
:100C90000A500E10126E0B500F10136E0C501010E5
:100CA000146E0D501110156EF6501210166E135072
:100CB000176E1450186E1550196E09C5F8F407C553
:100CC0000AF508C50BF509C50CF50BC50AF50CC5E9
:100CD0000BF50C6A0A50F76E07C5F6F4080018C544
:100CE000F8F417C5F7F416C5F6F4F5501200BE6A0D
:100CF000BF6AC06A020EC16EC26A0401026B0A6B4F
:100D0000126B1A6B226BC668C768BF0EC86EFD0EE9
:100D1000C96E0F0ECA6E006908693F0E106FFD0E96
:100D2000186F070E206F016B096B116B196B216B2C
:100D300003690B6913691B69070E236F04690C694A
:100D400014691C690F0E246F0201896B886B876B15
:100D5000866B170E726F200E176F0401056B066B02
:100D6000076B0D6B0E6B0F6B156B166B176B256B93
:100D7000266B276B12000FC518F510C519F511C5A4
:100D80001AF513C515F514C516F5F2EF06F015C5DD
:100D900007F516C508F53CEC0BF018C507F519C5A5
:100DA00008F51AC509F5ADEC07F0176EEBEC0AF083
:100DB000E806D8B4DEEF06F0E0EF06F0D6EF06F076
:100DC00050EC0BF01750D8B4E8EF06F0EAEF06F05D
:100DD000ECEF06F0FEEF06F0000E1826010E1922C9
:100DE000000E1A221828FF0E1958010E1A58D8A002
:100DF000FCEF06F0FEEF06F0C7EF06F012003E0E25
:100E0000F66E160EF76E000EF86E01EEF2F110EEB1
:100E10000EF00900F5C4EEF4E550E150FAE108EEF9
:100E2000ECF310EE14F1EE6AE550E150FCE1E25013
:100E3000FAE101EE00F210EE00F1EE6AE550E15049
:100E4000FCE1E250FAE101EE60F1770EEE6AE806AD
:100E5000FDE101EE58F1080EEE6AE806FDE104013D
:100E6000080E5D6F000E5E6F000E5F6F000EF86E75
:100E7000000101EF0BF00F6A116A0000112A11281E
:100E8000D8A445EF07F047EF07F03DEF07F0000E5D
:100E9000076E000E086E380E096EB3EC09F0106E86
:100EA000AA0E1018D8B457EF07F059EF07F061EF0A
:100EB00007F01004D8A45FEF07F061EF07F075EFBB
:100EC00007F0010E0F6EAA0E086E550E076E3CEC71
:100ED0000BF0000E076E000E086E380E096E000E45
:100EE0000A6E09EC09F050EC0BF00F5012000001F3
:100EF0005F817DEC09F0536E810E5318D8A483EF07
:100F000007F085EF07F0AAEF07F05F6A3BEC07F008
:100F1000546E9AEC09F0810AD8B491EF07F094EF7F
:100F200007F0010E95EF07F0000E556E5450D8A44F
:100F30009CEF07F09EEF07F0ACEF07F05550D8B4E8
:100F4000A4EF07F0A6EF07F0ACEF07F0010E5F6E1D
:100F5000ACEF07F0020E5F6E1200000ED6BE010E5F
:100F60000D6E09C545F007C50AF508C50BF509C59D
:100F70000CF50BC50AF50CC50BF50C6A0A500001FF
:100F8000446F4151F80B0609416FD69E00015BC5C5
:100F900042F05A50426F40810DB002D0D69E01D02F
:100FA000D68EF80E0001411741AFD9EF07F0DBEF05
:100FB00007F0DFEF07F0010E0E6EE0EF07F00E6AAC
:100FC0000E501200D68A000ED6BE010E096ED69EB5
:100FD000550E0401596FAA0E596F59915F6B5E6BE4
:100FE000080E5D6F550E596FAA0E596F598109B0E1
:100FF00002D0D69E01D0D68EAF90D680C20E076E9C
:10100000160E086E37EC0BF0B490D682C40E076E45
:10101000160E086E32EC0BF0B890D684C60E076E32
:10102000160E086E2DEC0BF01200C30E576E26EF55
:1010300008F0C18200015F9141EC0BF03CEF08F039
:10104000C19283EC00F0576E3CEF08F05F50050151
:10105000F06FF16BF151000AD8B431EF08F03CEFBA
:1010600008F0F051000AD8B420EF08F0010AD8B413
:1010700019EF08F03CEF08F0DB0E5718D8A443EF47
:1010800008F045EF08F047EF08F0010E5F6E120020
:1010900012C507F513C508F514C509F515C50AF5F8
:1010A0000C6A020E0B6E35EC09F0020E1224076E6C
:1010B000000E1320086E20EE02F01450D9261550B1
:1010C000DA22DEC409F5DDC40AF520EE01F0145081
:1010D000D9261550DA22DF50166E16500B6E0C6AA8
:1010E00035EC09F020EE01F01450D9261550DA2223
:1010F000DF50020F12000201A26BA46BA56BA66B5E
:10110000A76BA86BA96BAA6BB00EAB6F800EAC6F10
:10111000080EAD6F820EAE6F060EAF6F2E0EB06F63
:10112000B16B800EB26FB36BBC0E076E160E086EFD
:101130009FEC0AF0BA0E076E160E086E91EC0AF0DC
:10114000B80E076E160E086E83EC0AF00501876B69
:10115000000E866F1200020E18240501966F000E15
:101160001920976F12C5D9F413C5DAF417C5DFF447
:1011700020EE01F01250D9261350DA2216C5DFF402
:1011800014501510D8B4C7EF08F0C9EF08F0D9EF24
:1011900008F0020E1224076E000E1320086E14C50C
:1011A00009F515C50AF518C50BF519C50CF535EC8B
:1011B00009F01200096E0A6AEAEF08F0010E0A6EE1
:1011C00007EF09F0030E0A6E07EF09F0050E0A6E2D
:1011D00007EF09F00950076E086A0850000AD8B4F2
:1011E000F4EF08F007EF09F00750240AD8B4E2EF53
:1011F00008F0660AD8B4DEEF08F03C0AD8B4E6EF8F
:1012000008F0A50AD8B4DEEF08F007EF09F00A509D
:101210001200000ED6BE010E0E6E09C545F007C5C0
:101220000BF508C50CF509C50DF50CC50BF50DC57D
:101230000CF50D6A0B500001446F07C543F00AC559
:1012400046F04151F80B0309416FD69E00015BC582
:1012500042F05A50426F40810EB002D0D69E01D06B
:10126000D68EF80E00014117120009C50FF50AC508
:1012700010F507C50DF508C50EF54FEF09F00FC5C0
:10128000D9F410C5DAF4DF50116E0F4A102A0DC5DB
:10129000D9F40EC5DAF411C5DFF40D4A0E2A0B0697
:1012A000D8A00C060B2806E10C28D8A45AEF09F0A8
:1012B0005CEF09F03FEF09F0120007C50DF508C516
:1012C0000EF56BEF09F00DC5D9F40EC5DAF409C5BA
:1012D000DFF40D4A0E2A0B06D8A00C060B2806E1F7
:1012E0000C28D8A476EF09F078EF09F063EF09F045
:1012F00007C507F508C508F51200010E0A6E130EA2
:10130000096ECAEC09F00E6E0501A16BA26BE70E27
:101310000E18D8B48EEF09F090EF09F095EF09F0B0
:101320000D6AC30E0C6E98EF09F00D6A810E0C6EFB
:101330000C501200000E306E300E316E000E326E08
:10134000FE0E336ECF0E346E010E356E000E366E0D
:10135000FE0E376EFF0E386E010E396E97EC15F0EB
:10136000526E5250120009C545F007C50AF508C56E
:101370000BF509C50CF50BC50AF50CC50BF50C6A88
:101380000A500001446F07C543F0F80E4117408131
:101390004651120009500A10D8B4D1EF09F0D3EF2A
:1013A00009F0DDEF09F009C59CF50AC59DF57BEC58
:1013B00008F0E70E0B6EDFEF09F0960E0B6E0B5088
:1013C000120005018C518D11D8B4E9EF09F0EBEF53
:1013D00009F0F7EF09F002D8F7EF09F00500FA6E0F
:1013E0008C51FD6E8D51FE6EFF6AFA501200120094
:1013F00005018A518B11D8B400EF0AF002EF0AF010
:101400000EEF0AF002D80EEF0AF00500FA6E8A51CC
:10141000FD6E8B51FE6EFF6AFA501200120005013C
:1014200088518911D8B417EF0AF019EF0AF025EFA7
:101430000AF002D825EF0AF00500FA6E8851FD6E19
:101440008951FE6EFF6AFA50120012000501A205D2
:10145000D8A42DEF0AF02FEF0AF03BEF0AF0020EAE
:10146000086E230E076EE60EE82EFED7072EFCD779
:10147000082EFAD7FF001200076A0201B0AB43EF53
:101480000AF045EF0AF04EEF0AF0ABAB4AEF0AF074
:101490004CEF0AF04EEF0AF0010E076E07501200F3
:1014A0000501D66B000ED56FEC0E076E230E086E8D
:1014B0000A6A000E096E010E0C6E130E0B6E5DECC7
:1014C00009F0120007C594F508C595F509C592F510
:1014D0000AC593F50DC58EF50EC58FF50BC590F5B4
:1014E0000CC591F51200086E3CEC0AF00009D8B466
:1014F0007CEF0AF07EEF0AF074EF0AF008C507F5FA
:1015000059EC0BF0120007500810D8B48AEF0AF01B
:101510008CEF0AF090EF0AF007C580F508C581F559
:10152000120007500810D8B498EF0AF09AEF0AF0AA
:101530009EEF0AF007C582F508C583F51200075033
:101540000810D8B4A6EF0AF0A8EF0AF0ACEF0AF042
:1015500007C584F508C585F512000501956B000ED9
:10156000946F936B000E926F8F6B000E8E6F916B6A
:10157000000E906F1200FFFFFAC401F5FBC402F5E4
:10158000AF90E1EC09F002C5FBF401C5FAF41100DB
:10159000FAC403F5FBC404F5B490F8EC09F004C5F3
:1015A000FBF403C5FAF41100FAC405F5FBC406F513
:1015B000B8900FEC0AF006C5FBF405C5FAF411006B
:1015C0000BEC0BF077EC06F04AEC0BF07BEC08F040
:1015D000E2EC07F01200000140B1F1EF0AF0F4EF85
:1015E0000AF0010EF5EF0AF0000E12000201B0A39E
:1015F000FCEF0AF0FFEF0AF0010E00EF0BF0000E17
:101600001200E0EC0AF077EC07F015EC08F005EFBB
:101610000BF081EF00F0600E0001AD6FAF6BB36BAC
:10162000080EB16FB06BAC6B1200000E0714076EA2
:10163000FF0E0814086E010E0914096E1200000056
:101640000100000064000102000F01010A6E0A504F
:1016500073EC0AF009500A24120007C588F508C582
:1016600089F5120007C58AF508C58BF5120007C574
:101670008CF508C58DF5120008505A6E07C55BF54C
:101680001200FC6AE06A00EF18F012000750076EC3
:10169000086A120053EC0BF012000501A06B120057
:1016A0005A6A5B6A12000001419F12000201A151B7
:1016B000120007C5A3F21200120012001200FFFF71
:1016C0001100120012001200FFFFFFFFFFFFFFFFDB
:1016D000FFFFFFFFFFFFFFFFFFFFFFFFFFFFFFFF1A
:1016E000FFFFFFFFFFFFFFFFFFFFFFFFFFFFFFFF0A
:1016F000FFFFFFFFFFFFFFFFFFFFFFFFFFFFFFFFFA
:10170000FFFFFFFFFFFFFFFFFFFFFFFFFFFFFFFFE9
:1026000000F6100000AC16B216EC157814000000AD
:1026100000000000000000000000000000000000BA
:1026200000460A0000000000003E152215061500B5
:10263000000030C507F531C508F532C509F546EC8F
:102640000BF007C545F508C546F530C507F531C59A
:1026500008F532C509F515EC0BF007C542F508C5BC
:1026600043F509C544F533503410D8A43AEF13F0BC
:102670003CEF13F040EF13F0020E496E5AEF14F0E6
:102680003004000E3158020E3258D8A04AEF13F031
:102690004CEF13F04EEF13F03CEF13F035503610C3
:1026A000D8B455EF13F057EF13F03CEF13F03504A7
:1026B000010E3658D8B05FEF13F061EF13F03CEF26
:1026C00013F035C537F536C538F5396A305037243B
:1026D0003A6E315038203B6E325039203C6EFF0E3E
:1026E0003A243D6EFF0E3B203E6EFF0E3C203F6EB7
:1026F0003D04000E3E58020E3F58D8A082EF13F062
:1027000084EF13F086EF13F03CEF13F053EC0BF073
:1027100045504610D8B48FEF13F091EF13F0A4EFAB
:1027200013F042C51AF543C51BF544C51CF5000E50
:102730001D6E060E1E6E45C51FF546C520F5F6EC4E
:1027400002F0496EA5EF13F0496A4950D8A4ABEFE7
:1027500013F0ADEF13F058EF14F035504524476EE9
:1027600036504620486E4704010E4858D8A0BBEFAB
:1027700013F0BDEF13F0BFEF13F03CEF13F0000EBA
:102780004524076E060E4620086E33C509F534C58C
:102790000AF535C50BF536C50CF535EC09F0475093
:1027A0000008406E4850D8A0E82A0108416E405009
:1027B0004110D8B4DEEF13F0E0EF13F0FDEF13F0AB
:1027C00047C537F548C538F5396A425037241A6E7F
:1027D000435038201B6E445039201C6E000E472495
:1027E0001D6E060E48201E6E40C51FF541C520F522
:1027F000F6EC02F0496EFEEF13F0496A4950D8A496
:1028000004EF14F006EF14F058EF14F094C507F538
:1028100095C508F53CEC0BF042C507F543C508F536
:1028200044C509F5ADEC07F00009D8A41AEF14F07F
:102830001CEF14F01FEF14F0496A21EF14F0010EA1
:10284000496EEBEC0AF0E806D8B429EF14F02BEF50
:1028500014F021EF14F050EC0BF04950D8A433EFF2
:1028600014F035EF14F058EF14F08EC507F58FC54E
:1028700008F53CEC0BF042C507F543C508F544C527
:1028800009F5000E0A6E060E0B6EBDEC04F0000991
:10289000D8A44DEF14F04FEF14F052EF14F0496A42
:1028A00054EF14F0010E496E50EC0BF05AEF14F097
:1028B000010E496E4950120023EC05F00750081034
:1028C000D8B465EF14F067EF14F08BEF15F0020148
:1028D000B297B293B29D8BEF15F056EC0BF00F6EE2
:1028E0006AEF15F07E0E0F18D8A479EF14F07BEF85
:1028F00014F08BEF15F0010E5E6E8BEF15F00F509C
:1029000005019B6F9A6B020E5E6E8BEF15F00F50F8
:1029100005019A13596A000E586E5D6A996B000E94
:10292000986F5C6A9A519B11D8A499EF14F09BEFB1
:1029300014F09EEF14F05E6A8BEF15F0030E5E6EDE
:102940008BEF15F00F505D2658505910D8A4ABEFFF
:1029500014F0ADEF14F0B8EF14F0900E0F18D8B4D7
:10296000B4EF14F0B6EF14F0B8EF14F0010E5C6E93
:102970005C50D8A4BEEF14F0C0EF14F025EF15F0B2
:1029800058505910D8B4C7EF14F0C9EF14F0DEEF67
:1029900014F0595007E1090E585CD8B0D2EF14F08A
:1029A000D4EF14F0DEEF14F0670E5824D96E050E44
:1029B0005920DA6E0FC5DFF425EF15F0595009E103
:1029C000090E585CD8A0E7EF14F0E9EF14F0FEEF21
:1029D00014F0595007E10B0E585CD8B0F2EF14F028
:1029E000F4EF14F0FEEF14F0950E5824D96E050E96
:1029F0005920DA6E0FC5DFF425EF15F0595009E1C3
:102A00000C0E585CD8A007EF15F009EF15F025EF74
:102A100015F005019C51985D9D519959D8B013EF5F
:102A200015F015EF15F021EF15F098510924D96E26
:102A300099510A20DA6E0FC5DFF4984B992B25EFD8
:102A400015F05E6A690E96EF15F0584A592A05018D
:102A50009A51585C9B515958D8A031EF15F033EF7B
:102A600015F08BEF15F0040E5E6E8BEF15F05E6ABD
:102A70000F505DC50DF50E6A0D26000E0E220D508D
:102A8000FF0AD8A446EF15F048EF15F05DEF15F0FA
:102A90005C50D8B44EEF15F050EF15F052EF15F032
:102AA0008BEF15F00BC5D9F40CC5DAF498C5DEF43C
:102AB00099C5DDF4E70E96EF15F05C50D8B463EFDE
:102AC00015F065EF15F067EF15F08BEF15F03C0E84
:102AD00096EF15F05E500D6E0E6A0E50000AD8B4D7
:102AE00074EF15F08BEF15F00D50000AD8B472EFAB
:102AF00014F0010AD8B47FEF14F0030AD8B487EFBA
:102B000014F0010AD8B4A2EF14F0070AD8B437EFD2
:102B100015F08BEF15F0F6EC0AF00009D8A493EF4E
:102B200015F095EF15F06DEF14F0180E12005068C7
:102B300051684E6A010E37243A6E000E38203B6E03
:102B4000000E39203C6E30503A5C31503B583250C8
:102B50003C58D8A0AEEF15F0B0EF15F0DBEF15F054
:102B600030503A6E31503B6E32503C6E3D6A3350BD
:102B70003A243E6E34503B203F6E35503C20406E30
:102B800036503D20416E3750426E3850436E3950BA
:102B9000446E456A3E50425C3F5043584050445852
:102BA00041504558D8B0D7EF15F0D9EF15F0DBEF0D
:102BB00015F0010E4E6E4E50D8A4E1EF15F0E4EF83
:102BC00015F0010EE5EF15F0000E4C6E010E3724E6
:102BD0003A6E000E38203B6E000E39203C6E020E1D
:102BE0003C5CD8B0F6EF15F0F9EF15F0010EFAEFF6
:102BF00015F0000E4D6E3350341035103610D8B429
:102C000004EF16F006EF16F027EF16F030503A6E8C
:102C100031503B6E32503C6E3D6A33503A243E6E2A
:102C200034503B203F6E35503C20406E36503D20A6
:102C3000416E41500CE13E04000E3F58020E4058D8
:102C4000D8A025EF16F027EF16F02BEF16F0E70EC1
:102C50004F6E89EF16F04C50D8A431EF16F033EFD9
:102C600016F03BEF16F04D50D8B439EF16F03BEFAD
:102C700016F03FEF16F0240E4F6E89EF16F030C5B8
:102C80001AF531C51BF532C51CF533C51DF534C524
:102C90001EF535C51FF536C520F5500E216E050E03
:102CA000226E70EC17F037C507F538C508F539C541
:102CB00009F531EC06F03A6E3A50486E496A010E59
:102CC0003724076E000E3820086E000E3920096E7A
:102CD00031EC06F03A6E3A504A6E4B6A4A503B6EFF
:102CE0003A6A48503A10466E49503B10476E505071
:102CF000461809E151504718D8B481EF16F083EF18
:102D000016F087EF16F0DB0E4F6E89EF16F0810E8E
:102D10004F6E4F501200420E0501DB6FE10E076E41
:102D2000050E086E030E4A24096E000E4B200A6E33
:102D30000C6A0C0E0B6E35EC09F0D80E076E050E02
:102D4000086E4AC509F54BC50AF50C6A030E0B6EF1
:102D500035EC09F0E5C560F5E6C561F5E9C564F552
:102D6000EAC565F5E7C566F5E8C567F5EBC562F543
:102D7000ECC563F557EF17F04AC51CF54BC51DF5BB
:102D8000A2EC03F00501DB6F6DEF17F0A005D8A4EE
:102D9000CCEF16F0CEEF16F06DEF17F021EE60F1EC
:102DA00001EE07F1070EDBC4EBF4E806FCE262EC8F
:102DB0000AF00501E06B000EDF6F4D5009E1100EC7
:102DC0004C5CD8A0E6EF16F0E8EF16F0EEEF16F048
:102DD000F10E4C24DF6FFF0E4D20E06FE1C5DCF5F6
:102DE000E2C5DDF5E3C5DEF5DE5109E1300EDD5D5E
:102DF000D8A0FDEF16F0FFEF16F04DEF17F0DF5102
:102E0000E011D8B406EF17F008EF17F04DEF17F008
:102E1000DF05010EE059D8B010EF17F012EF17F0F0
:102E20004DEF17F0DCC507F5DDC508F5DEC509F582
:102E300046EC0BF00501DF510726E051082207049C
:102E4000010E0858D8B027EF17F029EF17F04DEF13
:102E500017F0DCC530F5DDC531F5DEC532F50F0EF6
:102E60004A24336E000E4B20346EDFC535F5E0C5C5
:102E700036F519EC13F00501D76FD751D8A443EFFD
:102E800017F045EF17F049EF17F0810EDB6F4FEFAA
:102E900017F07E0EDB6F4FEF17F0240EDB6FADECFB
:102EA0000AF06DEF17F0420EDB6F6DEF17F00501C2
:102EB000DA514E6E4F6A4F50000AD8B462EF17F0E5
:102EC00053EF17F04E50010AD8B4BCEF16F0030AC6
:102ED000D8B4C6EF16F053EF17F00501DB5112001E
:102EE0001AC507F51BC508F51CC509F515EC0BF04F
:102EF00007C527F508C528F509C529F5000E2B6E6D
:102F0000000E2C6E000E2D6E000E2E6EE1EF17F0EF
:102F10002B502724076E2C502820086E2D50292076
:102F2000096E31EC06F02A6E2A50246E236A21C500
:102F3000D9F422C5DAF42350DE1A2450DD1A080E23
:102F40002F6E21C5D9F422C5DAF4DEC423F5DDC421
:102F500024F524AEAEEF17F0B0EF17F0CBEF17F07B
:102F600021C5D9F422C5DAF4DEC423F5DDC424F585
:102F7000D89023362436210E2318256E100E2418DF
:102F8000266E21C5D9F422C5DAF425C5DEF426C59E
:102F9000DDF4D2EF17F021C5D9F422C5DAF4D890C8
:102FA000DE36DD362F062F50D8A4D9EF17F0DBEF31
:102FB00017F0A1EF17F0010E2B26000E2C222D2268
:102FC0002E221D502B5C1E502C581F502D58205067
:102FD0002E58D8A0EEEF17F0F0EF17F088EF17F0AB
:102FE0001200000141AFF7EF17F0F9EF17F0FDEF16
:102FF00017F0010E076EFEEF17F0076A0750120078
:10300000FFFFFFFFFFFFFFFFFFFFFFFFFFFFFFFFD0
:10301000FFFFFFFFFFFFFFFFFFFFFFFFFFFFFFFFC0
:10302000FFFFFFFFFFFFFFFFFFFFFFFFFFFFFFFFB0
:10303000FFFFFFFFFFFFFFFFFFFFFFFFFFFFFFFFA0
:107FF000FFFFFFFFFFFFFFFFFFFFFFFFCE4A3E89AE
:020000040030CA
:080000008FFFEFFF9FFFFFFFE0
:01000900FFF7
:00000001FF
